:400000000080002011000000990D0000990D000080B500AF024A034B1B68136000F0C6FEBC760040FA46004010B5054C237833B9044B13B10448AFF300800123237010BD07
:400040008081FF1F0000000004220000084B10B51BB108490848AFF300800848036803B910BD074B002BFBD0BDE81040184700BF000000008481FF1F04220000C880FF1F46
:400080000000000080B500AF62B600F023F80A2001F0D2FB00F026F800F024F800F0F0FB00F096F900F072FB00F030FF0346002B0CBF01230023DBB2184600F00BFF00F006
:4000C00025FF0346184601F08DFB4FF47A7001F0B3FBE1E780B500AF00F086FF01F0DEF900BF80BD90B583B000AF0023FB7100F07BFF01F0D3F9892000F026FC03469BB2DD
:400100001B029CB2882000F01FFC03469BB223449AB2AE4B5A818B2000F016FC03469BB21B029CB28A2000F00FFC03469BB223449BB21AB2A54B9A818D2000F005FC034629
:400140009BB21B029CB28C2000F0FEFB03469BB223449BB21AB29D4BDA818F2000F0F4FB03469BB21B029CB28E2000F0EDFB03469BB223449AB2954B1A82912000F0E4FB7F
:4001800003469BB21B029CB2902000F0DDFB03469BB223449BB21AB28C4B5A82932000F0D3FB03469BB21B029CB2922000F0CCFB03469BB223449BB21AB2844B9A8295206C
:4001C00000F0C2FB03469BB21B029CB2942000F0BBFB03469BB223449BB21AB27B4BDA82972000F0B1FB03469BB21B029CB2962000F0AAFB03469BB223449BB21AB2734B4C
:400200001A83992000F0A0FB03469BB21B029CB2982000F099FB03469BB223449BB21AB26A4B5A839B2000F08FFB03469BB21B029CB29A2000F088FB03469BB223449BB24B
:400240001AB2624B9A839D2000F07EFB03469BB21B029CB29C2000F077FB03469BB223449BB21AB2594BDA839F2000F06DFB03469BB21B029CB29E2000F066FB03469BB2CF
:4002800023449BB21AB2514B1A84A12000F05CFB03461A464D4B83F82220E22000F054FB03469BB21B029CB2E12000F04DFB03469BB223449BB21AB2444B9A84E32000F04D
:4002C00043FB03461A46414B83F82620E42000F03BFB03469BB21B019CB2E52000F034FB03469BB203F00F039BB223449BB21AB2364B1A85E62000F027FB03469BB21B012A
:400300009CB2E52000F020FB03461B09DBB29BB203F00F039BB223449BB21AB22B4B5A85E72000F011FB03461A46284B83F82C200021F42000F05AFB244B1B795B01FB71C6
:40034000224B5B799B005BB203F01C035AB297F9073013435BB2FB71FB791946F52000F045FB1A4B1B7A03F00703FB71FB791946F22000F03BFB154B9B795B01FB71134BC0
:40038000DB799B005BB203F01C035AB297F9073013435BB2FB710D4BDB785BB203F003035AB297F9073013435BB2FB71FB791946F42000F01BFBD02000F0C6FA0346BB7138
:4003C000BB7918460C37BD4690BD00BFCC80FF1F2DE9B04FA2B000AFF72000F0B5FA03461C03F82000F0B0FA03461B011C43F92000F0AAFA03461B09DBB203F00F032343F3
:40040000C7F88430644B1B6B4FEAE374B3F5FA3344F1FF34C7E91E34FA6FBB6F03FB02F1FA6FBB6F03FB02F3CC18BA6FBB6FA2FB030163181946584BB3F91A301BB24FEAEA
:40044000E37403FB01F500FB04F22A44A0FB033422441446C7E91C34C7E91C344E4BB3F918301BB24FEAE374BA6F04FB02F1FA6F03FB02F21144BA6FA2FB03340A19144611
:400480004FEA444949EAD3394FEA4348D7E91C3413EB080344EB0904C7E91C343E4BB3F916301BB24FEAE374DB00FB600023BB60D7E91C34D7E90212C91842EB04020B4689
:4004C0001446C7E91C34FA6FBB6F03FB02F1FA6FBB6F03FB02F3CC18BA6FBB6FA2FB0301631819462C4BB3F914301BB24FEAE37403FB01F500FB04F22A44A0FB0334224497
:4005000014461A0A3A663A6E42EA04623A6623127B66214BB3F912301BB24FEAE374BA6F04FB02F1FA6F03FB02F21144BA6FA2FB03340A1914464FEA043B4BEA135B4FEA5D
:40054000033AD7E9183413EB0A0344EB0B04C7E91E34D7E91E34191C44F500420E4B1B8A9BB24FF0000403FB02F501FB04F02844A1FB03340219144662103A60E3177B601D
:40058000D7E90034C7E91E34D7E91E34234305D14FF00003F3E000BFCC80FF1FD7F88430C3F580134FEAE374C7E91A34D7E91A34E207FA65FA6D42EA5302FA65DB07BB65BE
:4005C000D7E91C34D7E91612C91A62EB04020B461446DB1844EB04045B1844EB0204A0017863786B40EA9360786398013863D7E90C8918EB030849EB040943464C46A00066
:40060000F862F86A40EA9370F8629B00BB62D7E90A345B1844EB0204A0007862786A40EA937078629B003B62D7E9083413EB010844EB020940464946D7E91E2301F0DAFB65
:4006400003460C46C7E91A344F4BB3F9203018B24FEAE071D7E91A345A0B3A653A6D42EAC4423A6563137B65D7E91445234603FB01F22B4600FB03F31A442346A0FB0334A9
:4006800022441446D7E91A12480BB864B86C40EAC240B8645213FA64D7E91289424602FB04F14A4603FB02F20A444146A3FB0134224414465A0EBA61BA6942EAC412BA616E
:4006C0006316FB61D7E90634C7E91E342E4BB3F91E301BB24FEAE374BA6E04FB02F1FA6E03FB02F20A44B96EA1FB033422441446DA0C3A613A6942EA44323A61E3147B61A9
:40070000D7E90434C7E91C34D7E91A12D7E91E34C91842EB0402D7E91C345B1844EB02041A0A3A643A6C42EA04623A6423127B64154BB3F91C301BB24FEAE3742201FA6316
:40074000FA6B42EA1372FA631B01BB63D7E91034D7E90E125B1844EB0204C7E91A34D7E91A0101F0B9F903464FF08741184601F0A5FA03461A46044B9A63034B9B6B1846DF
:400780008837BD46BDE8B08FCC80FF1F90B583B000AFFD2000F0D8F803461C02FE2000F0D3F8034623437B60344B1B6BA3F596333B607B689A03314BB3F928301B05D21A4E
:4007C0002E4BB3F92A3019463B6803FB01F3D31A03F58043DB13294A92F82C2011463A6802FB01F29212254991F826100846396801FB00F1C91201F5004101FB02F292126B
:4008000002F500121D49B1F9241001FB02F202F50052921302FB03F33B603B68DB133A68D21302FB03F3DB11144A92F8222002FB03F31B113A68D31A3B603B6823EAE3738F
:400840003B603B68B3F1C85FA8BF4FF0C8533B603B681B13184601F029F903464FF08941184601F02BFA03461A46044BDA63034BDB6B18460C37BD4690BD00BFCC80FF1F28
:4008800090B589B000AFFA2000F05EF803461C03FB2000F059F803461B011C43FC2000F053F803461B09DBB203F00F032343FB61FB69DA10224B5B895B00D31A204AB2F90F
:4008C0000C2002FB03F3DB124FEAE374C7E90434FB691B111A4A52899B1AFA69121118494989521A02FB03F31B13154AB2F90E2002FB03F39B134FEAE374C7E902343A69B8
:40090000BB6813441A460E4B1A630D4B1A6B13469B00134480331B12184601F0C7F803467B600849786801F0C9F903467B60044A7B685363024B5B6B18462437BD4690BDC2
:40094000CC80FF1F0000C84280B584B000AF0346FB7101237B73244B1B78002B02D0012B3CD03CE000F0C6FD00F020FF1E4B5878F91D0023012200F0D1FD0023FB8109E034
:4009800000F0EEFE034603F00203002B07D1FB890133FB81FB89B3F5967FF1D300E000BF114B58787A7B07F10C01002300F046FE0023FB8109E000F0D3FE034603F0010339
:4009C000002B07D1FB890133FB81FB89B3F5967FF1D300E000BF00F061FD00E000BF3B7B18461037BD4680BDCC80FF1F80B584B000AF03460A46FB711346BB71FB793B7366
:400A0000BB797B73164B1B78002B02D0012B22D022E000F06FFD00F0C9FE114B587807F10C010023022200F079FD0023FB8109E000F096FE034603F00203002B07D1FB89BE
:400A40000133FB81FB89B3F5967FF1D300E000BF00F024FD00E000BF00BF1037BD4680BDCC80FF1F80B582B000AF786039603A680021786801F0BDFB00BF0837BD4680BDB1
:400A800080B584B000AFF860B9607A607A68B968F86801F0A3FB00BF1037BD4680BD00BF80B483B000AF0346FB71FEE780B487B000AF7860396000233B6100237B6127E0DC
:400AC0007B699B007A6813441B68BB60BB68FB73BB6823F0FF03BB6014E03B695B003A6813441B781A46BB68134419463B695B003A6813445B780B703B6901333B61FB7BD4
:400B0000013BFB73FB7B002BE7D17B6901337B617B69112BD4D900BF1C37BD4680BC704780B582B000AF304B0E221A802F4B18221A702F4B02221A704FF0402308221A70D2
:400B40002C4B03221A702C4B2C4A1278D2B21A702B4B08221A802B4B41F251221A800023FB7019237B6014E0FB785B00DAB2264B1B78DBB203F00103DBB21343DBB203F0FC
:400B80000303FB704FF4F07000F0C6FE7B68013B7B607B68002B02D0FB78032BE4D17B68002B02D10320FFF77BFF184B4FF480721A80164B07221A70154B00221A70154B17
:400BC00048221A70114B00221A70134B02221A70124A124B1B78DBB243F00103DBB2137000BF0837BD4680BD80400040824000400043004000420040A1460040080100490F
:400C000022420040204200402542004004400040064000400840004001400040A243004080B483B000AF0B4B1B78FB710A4AFB7903F00703DBB21370084AFB791B09DBB2D8
:400C40001370074B44221A7000BF0C37BD4680BC704700BFCF0100496E5800406F5800407658004080B582B000AF72B6394A394B1B78DBB243F00403DBB213700023FB7186
:400C800013E0FA7913465B0013445B00324A13443B603B681A683B689B889BB219461046FFF7E0FEFB790133FB71FB79072BE8D92A494FF09040FFF7F9FE294A284B1B78D6
:400CC000DBB243F00203DBB21370264A254B1B78DBB243F00203DBB21370234A224B1B78DBB243F04003DBB21370204A1F4B1B78DBB243F01003DBB2137008221C491D4819
:400D0000FFF7BEFE08221C491C48FFF7B9FE0A221B491C48FFF7B4FE1B4A1B4B1B78DBB243F00803DBB21370184B61221A70FFF7F7FE164B81221A70154B01221A70FFF7A0
:400D40006FFF0E2208491348FFF79AFE00BF0837BD4680BDE846004010220000480000480350014013500140A0430040C243004034050048025100403C050048125100404D
:400D80004405004820510040224300400048004004000840B043004080B500AF01F0F2F903461B680C2B00D1FEE7FEE780B586B000AF224B7B61224B3B61204B7B6135E01F
:400DC0003B691B68FB603B695B68BB603B699B683B6000237B600CE0FB681A68BB681A60BB680433BB60FB680433FB607B6804337B607A683B689A42EED13B69DB683B6040
:400E000000237B6008E0BB6800221A60BB680433BB607B6804337B607A683B689A42F2D13B6910333B617B69013B7B617B69002BC6D101F0ADF9FFF725F9FEE701000000C9
:400E40006822000080B582B000AF184B184A1A60184A184B1B6843F40073136000237B600FE07B68032B04D8134A7B6852F8233000E0124B12497A6841F822307B6801335B
:400E80007B607B682F2BECD90E4B1B78DAB20E4B1A700E4B0A4A1A60FFF7E4FE0C4B00221A6000BF0837BD4680BD00BF0CED00E00004FA0514ED00E000000000990D0000A8
:400EC0000080FF1FBC760040C480FF1F08ED00E0C080FF1F80B485B000AF0346FB710A4B1B78DBB223F00103FB730749FB7903F00103DAB2FB7B1343DBB20B7000BF143761
:400F0000BD4680BC704700BF2051004080B400AF044B1B78DBB203F00103DBB21846BD4680BC70472151004080B582B000AF1B4B00221A701A4B01221A7000F0F5FC03460B
:400F4000FB71184A174B1B78DBB243F01003DBB21370FB79184600F0EBFC134B0F221A70124B08221A70124B01221A600721002000F0ACFC0F49002000F080FC0E4B1022AF
:400F80001A700E4B00221A700D4B00221A700D4B00221A7000BF0837BD4680BD7C6400408D6400409D640040296400403964004080E100E071100000A281FF1FA681FF1FD8
:400FC000AE81FF1FA481FF1F80B400AF054A054B1B78DBB243F00203DBB2137000BFBD4680BC70477C64004080B500AF074B1B78002B04D1FFF798FF044B01221A70FFF75A
:40100000E3FF034B01221A6000BF80BD9C81FF1F00E100E080B400AF0F4B01221A600F4A0E4B1B78DBB223F00203DBB213700C4B1B780C4A0B4B1B78DBB223F02003DBB29E
:401040001370094B01221A60084B10221A7000BFBD4680BC704700BF80E100E07C6400406D6400408D64004080E200E0A281FF1F80B582B000AFA64B1B78FB71A54B1B78CA
:40108000DBB203F04003DBB2002B00F0CD81FB7903F00103002B00F0A4819E4B1B78DBB2453B052B00F2998101A252F823F000BFC91000000F120000DB130000DB13000072
:4010C000C910000045130000FB7923F02003FB71FB7903F00A03DBB2082B54D18D4B1B78DBB2452B42D18C4B1B78DBB2002B15D08A4A8B4B1B681B78DBB21370894B062202
:401100001A70894BFF221A70884B00221A70884B01221A707F4B46221A7062E1854B1B78DBB203F00203002B0ED0834B1B78DBB243F00A03DAB2804B1A70764B60221A70DB
:401140007E4B01221A604CE17D4A7D4B1B78DBB243F02003DBB21370724B52221A70724BFF221A70714B00221A703AE16D4B02221A706D4BFF221A706C4B00221A70654B45
:401180004A221A702DE1FB7903F00A03DBB20A2B39D1694B1B78DBB263F05F03DAB2664B1A70644B1B78DBB203F00203002B18D0584B1B78DBB203F00803002B01D00923D8
:4011C00000E00A23DAB25C4B1B78DBB21343DAB2594B1A704F4B60221A70584B01221A60FFE0574A564B1B78DBB243F02003DBB213704C4B52221A704B4BFF221A704B4B86
:4012000000221A70EDE0002000F00AFBE9E0FB7903F00203002B4AD1454B1B78DAB23E4B1B78DBB29A421AD23C4A3D4B1B6840490978C9B20B441B78DBB21370394B0622D1
:401240001A70394BFF221A70384B00221A70384B1B78DBB20133DAB2354B1A70C1E0354B1B78DBB203F00203002B0ED0324B1B78DBB243F00A03DAB22F4B1A70254B602278
:401280001A702E4B01221A60ABE02D4A2C4B1B78DBB243F02003DBB21370224B52221A70214BFF221A70214B00221A7099E0214B1B78DBB203F00203002B0ED01E4B1B78F3
:4012C000DBB263F06503DAB21B4B1A70114B60221A701A4B01221A6083E0194A184B1B78DBB243F02003DBB213700E4B52221A700D4BFF221A700D4B00221A700E4B1B78C7
:40130000DBB263F06F03DAB20B4B1A7069E000BF6D640040A281FF1FA581FF1F0A640040B081FF1F7C6400401A6400405A640040A481FF1FAC81FF1FA681FF1F80E100E064
:401340008D640040404B1B68404A1278D2B213443F4A1278D2B21A703C4B1B78DBB20133DAB23A4B1A70394B1B78DAB2394B1B78DBB29A4209D2384B02221A70374BFF22D6
:401380001A70374B00221A702BE0364B1B78DBB203F00203002B0ED0334B1B78DBB243F00903DAB2304B1A70304B60221A70304B01221A6015E02F4A2E4B1B78DBB243F081
:4013C0002003DBB21370244B12221A70234BFF221A70234B00221A7003E0002000F020FA00BFFB7903F02003002B28D01F4B1B78DBB203F00803002B01D0012300E0022334
:40140000DAB2194B1B78DBB21343DAB2164B1A70184A184B1B78DBB223F02003DBB21370124B10221A700AE0104B1B78DBB203F01003DBB2002B02D10C4B10221A7000BFC3
:401440000837BD4680BD00BFA881FF1FAE81FF1F0A640040AD81FF1F7C6400401A6400405A640040AC81FF1FA681FF1FA281FF1F80E100E08D64004080B400AF054B1B78BB
:40148000DBB203F00803DAB2034B5A7000BFBD4680BC70477C640040A081FF1F80B500AF0B4B1B78DBB203F00203002B14BF01230023DBB21A46074B1A70064B1B78002B7A
:4014C00001D0FFF7A7FDFFF7D7FF00BF80BD00BF7C640040A081FF1F80B400AF034B044A52781A7000BFBD4680BC70477C640040A081FF1F80B500AFFFF7EEFF054B1B780A
:40150000002B04D0FFF760FD034B01221A6000BF80BD00BFA081FF1F00E100E080B485B000AF396011461A460346FB710B46BB7113467B710223FB733B68002B5DD0324BC9
:401540001B78DBB2102B0CD1304B1B78DBB203F01003002B02D10023FB7314E00123FB7311E0294B1B78DBB2602B0CD10023FB73274B01221A60274B1B78DBB223F0080340
:40158000DAB2244B1A70FB7B002B36D11E4B45221A70214B00221A70204ABB791370204A3B6813601F4A7B7913701A4B1B78DBB223F00203DAB2174B1A701B4AFB795B00C2
:4015C000DBB213707B7903F00103002B09D0174B32221A70164BFF221A70164B00221A7008E0124B82221A70114BFF221A70114B00221A70104B01221A60FB7B18461437FA
:40160000BD4680BC704700BFA281FF1F6D64004080E200E0A681FF1FA481FF1FA581FF1FB081FF1FAC81FF1F0A6400407C6400401A6400405A64004000E100E080B485B047
:4016400000AF396011461A460346FB710B46BB7113467B710223FB733B68002B60D0334B1B78DBB2102B0CD1314B1B78DBB203F01003002B02D10023FB7314E00123FB73F6
:4016800011E02A4B1B78DBB2602B0CD10023FB73284B01221A60284B1B78DBB223F00803DAB2254B1A70FB7B002B39D11F4B49221A70224B00221A70214ABB791370214AB4
:4016C0003B681360204A7B7913701B4B1B78DBB223F00103DAB2184B1A701C4AFB795B00DBB243F00103DBB213707B7903F00103002B09D0164B32221A70164BFF221A709A
:40170000154B00221A7008E0114B82221A70114BFF221A70104B00221A70104B01221A60FB7B18461437BD4680BC7047A281FF1F6D64004080E200E0A681FF1FAE81FF1FEA
:40174000AD81FF1FA881FF1FAC81FF1F0A6400407C6400401A6400405A64004000E100E080B483B000AF0D4B01221A600C4B1B78FB710C4B1B78DBB203F04003DBB2002B7A
:4017800003D0FB7943F00403FB71074B01221A60FB7918460C37BD4680BC704780E100E0A681FF1FA281FF1F00E100E080B483B000AF094B01221A60084B1B78FB71074B0F
:4017C00000221A70064B01221A60FB7918460C37BD4680BC704700BF80E100E0A681FF1F00E100E080B485B000AF0346FB710B4B1B78DBB223F00803FB730849FB79DB00CF
:40180000DBB203F00803DAB2FB7B1343DBB20B7000BF1437BD4680BC704700BF0051004080B483B000AF0346FB7101BE00BF0C37BD4680BC704700BF80B582B000AF78603E
:4018400008E00C4B1B68184600F066F87B68A3F500437B607B68B3F5004FF2D8064B1B687A6802FB03F3184600F056F800BF0837BD4680BD1881FF1F1081FF1F80B584B06B
:4018800000AF03463960FB710F4B1B68FB60FB791F2B02D90020FFF7C3FFFB7903F01F0310339B00FA6813441B68BB60FB7903F01F0310339B00FA6813443A681A60BB6865
:4018C00018461037BD4680BD08ED00E080B582B000AF03460A46FB711346BB71BB79072B02D90020FFF79CFFFB791F2B02D90020FFF796FFFB7903F01F0303F1604303F540
:401900006443BA795201D2B21A7000BF0837BD4680BD00BF000000000230800803D000BF01380046FCD17047EFF3108072B6704780F31088704700BF80F0004002E000BFFD
:4019400081F0004142001FBF5FEA410392EA030F7FEA226C7FEA236C6AD04FEA1262D2EB1363C1BFD218414048404140B8BF5B42192B88BF704710F0004F40F4000020F094
:401980007F4018BF404211F0004F41F4000121F07F4118BF494292EA030F3FD0A2F1010241FA03FC10EB0C00C3F1200301FA03F100F0004302D5494260EB4000B0F5000F48
:4019C00013D3B0F1807F06D340084FEA310102F10102FE2A51D2B1F1004F40EBC25008BF20F0010040EA03007047490040EB000010F4000FA2F10102EDD1B0FA80FCACF10C
:401A0000080CB2EB0C0200FA0CF0AABF00EBC25052421843BCBFD0401843704792F0000F81F4000106BF80F400000132013BB5E74FEA41037FEA226C18BF7FEA236C21D080
:401A400092EA030F04D092F0000F08BF0846704790EA010F1CBF0020704712F07F4F04D1400028BF40F00040704712F100723CBF00F50000704700F0004343F0FE4040F484
:401A8000000070477FEA226216BF08467FEA23630146420206BF5FEA412390EA010F40F4800070474FF0000304E000BF10F0004348BF40425FEA000C08BF704743F09643EE
:401AC00001464FF000001CE050EA010208BF70474FF000030AE000BF50EA010208BF704711F0004302D5404261EB41015FEA010C02BF84460146002043F0B64308BFA3F109
:401B00008053A3F50003BCFA8CF2083AA3EBC25310DB01FA02FC634400FA02FCC2F12002BCF1004F20FA02F243EB020008BF20F00100704702F1200201FA02FCC2F120021A
:401B400050EA4C0021FA02F243EB020008BF20EADC7070474FF0FF0C1CEAD0521EBF1CEAD15392EA0C0F93EA0C0F6FD01A4480EA010C400218BF5FEA41211ED04FF00063BC
:401B800043EA501043EA5111A0FB01310CF00040B1F5000F3EBF490041EAD3715B0040EA010062F17F02FD2A1DD8B3F1004F40EBC25008BF20F00100704790F0000F0CF0D6
:401BC000004C08BF49024CEA502040EA51207F3AC2BFD2F1FF0340EAC250704740F400004FF00003013A5DDC12F1190FDCBF00F000407047C2F10002410021FA02F1C2F106
:401C0000200200FA02FC5FEA310040F1000053EA4C0308BF20EADC70704792F0000F00F0004C02BF400010F4000F013AF9D040EA0C0093F0000F01F0004C02BF490011F486
:401C4000000F013BF9D041EA0C018FE70CEAD15392EA0C0F18BF93EA0C0F0AD030F0004C18BF31F0004CD8D180EA010000F00040704790F0000F17BF90F0004F084691F0FA
:401C8000000F91F0004F14D092EA0C0F01D142020FD193EA0C0F03D14B0218BF084608D180EA010000F0004040F0FE4040F40000704740F0FE4040F4400070474FF0FF0C46
:401CC0001CEAD0521EBF1CEAD15392EA0C0F93EA0C0F69D0A2EB030280EA010C49024FEA402037D04FF0805343EA111143EA10130CF000408B4238BF5B0042F17D024FF458
:401D0000000C8B4224BF5B1A40EA0C00B3EB510F24BFA3EB510340EA5C00B3EB910F24BFA3EB910340EA9C00B3EBD10F24BFA3EBD10340EADC001B0118BF5FEA1C1CE0D1FC
:401D4000FD2A3FF650AF8B4240EBC25008BF20F0010070470CF0004C4CEA50207F32C2BFD2F1FF0340EAC250704740F400004FF00003013A37E792F0000F00F0004C02BF3A
:401D8000400010F4000F013AF9D040EA0C0093F0000F01F0004C02BF490011F4000F013BF9D041EA0C0195E70CEAD15392EA0C0F08D142027FF47DAF93EA0C0F7FF470AF59
:401DC000084676E793EA0C0F04D14B023FF44CAF08466EE730F0004C18BF31F0004CCAD130F000427FF45CAF31F000437FF43CAF5FE700BF7BB972B90029BEBF00204FF057
:401E0000004106E008BF00281CBF6FF000414FF0FF3000F0B5B9ADF1080C6DE904CE002909DB002B1ADB00F035F8DDF804E0DDE9022304B07047404261EB4101002B1BDBE1
:401E400000F028F8DDF804E0DDE9022304B0404261EB4101524263EB43037047524263EB430300F017F8DDF804E0DDE9022304B0404261EB41017047524263EB430300F0AD
:401E800009F8DDF804E0DDE9022304B0524263EB430370472DE9F04F8C460C460546099E002B4FD18A4217466BD9B2FA82FEBEF1000F0BD0CEF1200520FA05F501FA0EF30E
:401EC00045EA030C02FA0EF700FA0EF5390CBCFBF1F0BAB201FB10C300FB02F84FEA154C4CEA0344A04509D9E41900F1FF3380F02881A04540F2258102383C44C8EB040450
:401F0000B4FBF1F301FB134C03FB02F2ACB244EA0C418A4209D9C91903F1FF3480F00F818A4240F20C81023B39448A1A43EA00400021002E63D022FA0EF2002386E80C00A0
:401F4000BDE8F08F8B4207D9002E56D0002186E811000846BDE8F08FB3FA83F1002940F09380A34202D3824200F2FE80851A64EB03039C460120002E41D086E82010BDE836
:401F8000F08F12B90127B7FBF2F7B7FA87FEBEF1000F36D1E41B4FEA17481FFA87F90121B4FBF8F308FB134409FB03F24FEA154C4CEA0444A24207D9E41903F1FF3002D20A
:401FC000A24200F2D3800346A41AB4FBF8F008FB104809FB00F9ACB244EA0842914507D9D21900F1FF3402D2914500F2BA802046C9EB020240EA03409BE731463046BDE8B2
:40200000F08F07FA0EF7CEF1200C24FA0CF34FEA1748B3FBF8FA1FFA87F908FB1A3520FA0CFC04FA0EF40AFB09FB4CEA040C4FEA1C4242EA05439B4500FA0EF50AD9DB19C0
:402040000AF1FF3280F08B809B4540F28880AAF1020A3B44CBEB0303B3FBF8F008FB103300FB09F41FFA8CFC4CEA03439C4207D9DB1900F1FF326ED29C426CD902383B44DC
:402080001C1B40EA0A418BE7C1F1200E8B4022FA0EFC4CEA030C24FA0EF74FEA1C49B7FBF9FA1FFA8CF309FB1A7720FA0EF88C400AFB03F548EA04044FEA144848EA074721
:4020C000BD4202FA01F200FA01FB09D917EB0C070AF1FF3041D2BD423FD9AAF1020A67447F1BB7FBF9F509FB157705FB03F3A4B244EA0747BB4208D917EB0C0705F1FF30B5
:4021000027D2BB4225D9023D674445EA0A40A0FB0289FF1A4F4545464C4614D329D066B3BBEB050367EB040707FA0EFECB40CF404EEA030386E888000021BDE8F08F23464B
:40214000F3E61846DAE6B8EB020569EB0C040138E5E70546D9E7104692E78246C0E7924678E702383A4443E7084604E7023B3C442AE7C345E7D33C46D1E73146BDE8F08F55
:40218000704700BF014B1868704700BF7C81FF1F0E4B70B51E460E4C0025E41AA410A54204D056F8253098470135F8E700F04AF8084B094C1E46E41AA4100025A54204D017
:4021C00056F8253098470135F8E770BD5022000050220000502200005822000010B5431E0A44914204D011F8014B03F8014FF8E710BD03460244934202D003F8011BFAE7B6
:4022000070470000000000008CFCFF7F01000000305100404000C05100401000F0510040100000000140001000140140000800400140000A004C0140000200500140200074
:4022400043000000F8B500BFF8BC08BC9E4670474D000000450E0000F8B500BFF8BC08BC9E4670472900000078220000C880FF1FB8000000380000000000000000770A03E0
:40228000000001010100000000000000000000000000000000000000000000000000000000000000000000000000000000000000003C1CC6003C1CC6003C1CC600366E011C
:4022C000C05D0000180000000000E02E0000000000000000000000000000000000000000000000000000000000000000402200000000000000000000000000000000000039
:4023000000000000000000000000000000000000000000000000000000000000000000000000000000000000000000001C81FF1F00000000000000000000000000000000E2
:40234000000000000000000000000000000000000000000000000000000000000000000000000000000000000000000000000000000000000000000000000000000000005D
:40238000000000000000000000000000000000000000000000000000000000000000000000000000000000000000000000000000000000000000000000000000000000001D
:4023C00000000000000000000000000000000000000000000000000000000000000000000000000000000000000000000000000000000000000000000000000000000000DD
:40240000000000000000000000000000000000000000000000000000000000000000000000000000000000000000000000000000000000000000000000000000000000009C
:020000040003F7
:0200000480007A
:40000000035200400364004001030140610801403E090140580A0140560B01403A0C0140430D0140560E0140350F0140021901400240014002410140094501400446014009
:400040000550014001510140100C1104140C290F2A043908EA020219040805330613070C090E0A1D0B300C080D800E200F56100811FF12301546161917A91C111E082140D3
:4000800023132701292A2B543038320433FF340136023A023E10580459045F01820484108550862187028B408C408D048E028F08913F92019448954097189B209D409E03C6
:4000C0009F14A048A10FA580A810A940AA21AB08AD50AF01B040B13FB208B438B5C0B607B82AB922BA80BE14BF10C032C520C750C822C9FFCAFFCBFFCC42CDA0CE70D008B0
:40010000D110D804D904DA04DF01E148E240E348E480E548E680E748000A0104020203010420050107210A610D020E221080131018801A451B881C041D021E22211125088D
:40014000260829202A412B102D202F90310832123380360A388039143B203C083E403F104110430848805201902091109220931094849502960499219B20A005A202A3105E
:40018000A508A780B684C0FDC2BDC40ACAEFCCCFCE7ED0060008013D021003C2042805010603080809010A700C090E440FFF11E2120314281592160317601820190D1A0B52
:4001C0001C011E061F08202B2140231D2402255D260127A229042BE02C232E082F023278360737FF3A883F4040124405450D460B480549FF4A7F4BFF4C424DA04E70500C4C
:40020000580459045A045F016109624063096430650980018102861488028A098C108E0B90039301940F98039C089E029F02A01FA401AA01AD02AE0BB301B41FB702D80400
:40024000D904DF0100080202034804800524068008100A010B500C400E800F14106114811610171018021A011B081C081D101F202002242026C0284029A42BA02F023108CB
:4002800032A235013680388039413A143B403C203D103E0242064340481049404A204B04524078807A037B02880189098B109220931094A69542981099E19A149B709D100D
:4002C0009E40A020A201A310A410A508A680A78AA821AC40AD01AE04B003B308B420C0FFC2FFC4FDCA1FCC9FCE8FD00CD208EC0203040902130119021D03230224012B028D
:400300002D0333043601370352F6580459045B045F018122874089018C108D049001919C920A932295B2970899989B069C109D06A001A1AAA202A310A501A604A71EA9A24B
:40034000AB18AD3FB008B210B360B403B51FB604B780B808B9A0BF40D420D604D804D904DB04DF01014008010B02106014401502170419451A011B101E02211423112721A5
:4003800029242B822C042F8330023118328035103741380839203A423E013F104480470158A25A046004620263016D086F1475807696880289149008922094A0950A971060
:4003C000981499209B409D119E96A040A410A50CA683A780AE02B010B308C001C209C42CCABFCCBFCEAFD60FD80D00100207030F04010570070108010B0F0C3A0D0F0E0400
:4004000010401110120713E0140115601718182219201A051B581C7F1D301F442003210F2403280529702A782B022C082D102E072F8031F0347F350F3B023E103F10580484
:4004400059045F01820185328602880489088B118D448EB58F28904D9178929294CC950A9613971098A5992A9A4A9B509CFFA002A102A310A4A9A50AA654A720A81AAA6035
:40048000AB80AE04B107B2FFB3F8B902BE04BF01D804D904DF0100400101021404800694085009040B400C510D080E02100112C013381662172018081F0420802211275063
:4004C000280229112A202F94301431083201339434023601371438A0390A3B443C203F4449104B2059205B1078017B80880489018C408D10C0FFC2FFC4FFCAEDCCEFCE7F46
:40050000B240B3103020CC10AC20EA400080048056105F408A10C003D402D604E404AF40B040B440EE0C000101010C010D010E01000300000008080000000000000B0B00C3
:40054000000000000D0000010D000C000000000000000000000000000000000000000000000000000000000000000000000000000000000000000000000000000000000054
:40058000000000000000000000000000000000000000000000000000000000000000000000000000000000000000000000000000000000000000000000000000000000003B
:4005C00000000000000000000000000000000000000000000000000000000000000000000000000000000000000000000000000000000000000000000000000000000000FB
:4006000000000000000000000000000000000000000000000000000000000000000000000000000000000000000000000000000000000000000000000000000000000000BA
:40064000000000000000000000000000000000000000000000000000000000000000000000000000000000000000000000000000000000000000000000000000000000007A
:0200000490006A
:0400000000004005B7
:0200000490105A
:04000000BC90ACAF55
:0200000490303A
:02000000547436
:0200000490402A
:4000000000000000000000000000000000000000000000000000000000000000000000000000000000000000000000000000000000000000000000000000000000000000C0
:400040000000000000000000000000000000000000000000000000000000000000000000000000000000000000000000000000000000000000000000000000000000000080
:400080000000000000000000000000000000000000000000000000000000000000000000000000000000000000000000000000000000000000000000000000000000000040
:4000C0000000000000000000000000000000000000000000000000000000000000000000000000000000000000000000000000000000000000000000000000000000000000
:0200000490501A
:0C00000000012E16106900012E2564DDA1
:00000001FF